:100000000C943E000C9448000C9448000C9448005A
:100010000C9448000C9448000C9448000C94480040
:100020000C9448000C9448000C9448000C94480030
:100030000C9448000C9448000C9448000C94480020
:100040000C9448000C9448000C9448000C94480010
:100050000C9448000C9448000C9448000C94480000
:100060000C9448000C9448000C9448000C944800F0
:100070000C9448000C9448000C94480011241FBEB6
:10008000CFEFD8E0DEBFCDBF0E94E3000C949F020B
:100090000C94000020ED37E0AC01429FC001439F6B
:1000A000900D529F900D11240197F1F70895BC0116
:1000B000990F880B990B660F771F881F991F0E9455
:1000C0009C010E946D01CB010197F1F70895FC019D
:1000D00090819F5F90830895BF92CF92DF92EF92BD
:1000E000FF920F931F93CF93DF93FC019B0180ED51
:1000F00097E00E94770288EE93E0689F6001699F15
:10010000D00C789FD00C112489E18E9FB0018F9F75
:10011000700D1124629FC001639F900D729F900D1E
:10012000112464E670E00E9477028B014423A1F061
:10013000D0E0C0E092E0B92E7901E61AF70ACC15BA
:10014000DD0504F5B5B8C8010E94570015B8C70110
:100150000E9457002196F3CFF12CE12C83E0B82EBA
:10016000E901C61BD70BEC14FD0464F4B5B8C80153
:100170000E94570015B8CE010E9457008FEFE81A71
:10018000F80AF1CFDF91CF911F910F91FF90EF907F
:10019000DF90CF90BF900895BC01990F880B990B09
:1001A0000E949E019B01AC0160E074E284E799E447
:1001B0000E94F4000E942A020E94660141E081E050
:1001C00090E00C946C008FEF81B984B987B91AB8AC
:1001D00042E020E032E145B9C9010197F1F715B8D5
:1001E000C9010197F1F7F7CF0E9408010C94F001C3
:1001F0000E94E90158F00E94E20140F029F45F3FBB
:1002000029F00C94D90151110C9424020C94DF01B3
:100210000E94010268F39923B1F3552391F3951BD2
:10022000550BBB27AA2762177307840738F09F5F17
:100230005F4F220F331F441FAA1FA9F335D00E2E84
:100240003AF0E0E832D091505040E695001CCAF7F1
:100250002BD0FE2F29D0660F771F881FBB1F2617B4
:1002600037074807AB07B0E809F0BB0B802DBF018B
:10027000FF2793585F4F3AF09E3F510578F00C945A
:10028000D9010C9424025F3FE4F3983ED4F38695A1
:1002900077956795B795F7959F5FC9F7880F911D7B
:1002A0009695879597F90895E1E0660F771F881F67
:1002B000BB1F621773078407BA0720F0621B730B1A
:1002C000840BBA0BEE1F88F7E09508950E946D012C
:1002D0006894B1110C94240208950E94090288F0D8
:1002E0009F5798F0B92F9927B751B0F0E1F0660FFA
:1002F000771F881F991F1AF0BA95C9F714C0B1303B
:1003000091F00E942302B1E008950C942302672F1C
:10031000782F8827B85F39F0B93FCCF38695779569
:100320006795B395D9F73EF4909580957095619552
:100330007F4F8F4F9F4F0895E89409C097FB3EF47D
:1003400090958095709561957F4F8F4F9F4F992322
:10035000A9F0F92F96E9BB279395F69587957795A0
:100360006795B795F111F8CFFAF4BB0F11F460FF60
:100370001BC06F5F7F4F8F4F9F4F16C0882311F0B8
:1003800096E911C0772321F09EE8872F762F05C0CC
:10039000662371F096E8862F70E060E02AF09A9567
:1003A000660F771F881FDAF7880F9695879597F95C
:1003B000089597F99F6780E870E060E008959FEFE7
:1003C00080EC089500240A941616170618060906EC
:1003D000089500240A9412161306140605060895BB
:1003E000092E0394000C11F4882352F0BB0F40F443
:1003F000BF2B11F460FF04C06F5F7F4F8F4F9F4F83
:10040000089557FD9058440F551F59F05F3F71F004
:100410004795880F97FB991F61F09F3F79F087956B
:100420000895121613061406551FF2CF4695F1DFF4
:1004300008C0161617061806991FF1CF8695710584
:10044000610508940895E894BB2766277727CB01B8
:1004500097F908950E940902E8F09E37E8F096396E
:10046000B8F49E3848F4672F782F8827985FF9CF23
:1004700086957795679593959539D0F3B62FB1709A
:100480006B0F711D811D20F4879577956795939566
:100490000C944E020C9469020C942402882371F48B
:1004A000772321F09850872B762F07C0662311F40D
:1004B00099270DC09051862B70E060E02AF09A9544
:1004C000660F771F881FDAF7880F9695879597F93B
:1004D00008959F3F31F0915020F487957795679567
:1004E000B795880F911D9695879597F9089597FB75
:1004F000072E16F4009407D077FD09D00E948B02D6
:1005000007FC05D03EF4909581959F4F0895709516
:1005100061957F4F0895AA1BBB1B51E107C0AA1F1D
:10052000BB1FA617B70710F0A61BB70B881F991F94
:100530005A95A9F780959095BC01CD010895F8943E
:02054000FFCFEB
:00000001FF
