:100000000C943E000C947A000C9450000C94500018
:100010000C9450000C9450000C9450000C94500020
:100020000C9450000C9450000C9450000C94500010
:100030000C9450000C9450000C9450000C94500000
:100040000C9450000C9450000C9450000C945000F0
:100050000C9450000C9450000C9450000C945000E0
:100060000C9450000C9450000C9450000C945000D0
:100070000C9450000C9450000C94500011241FBE9E
:10008000CFEFD8E0DEBFCDBF21E0A0E0B1E001C0FE
:100090001D92A230B207E1F70E94C7000C940B0139
:1000A0000C94000081E088B98FE097E20197F1F7A6
:1000B00000C00000089582E088B98FE097E20197C0
:1000C000F1F700C00000089518B88FE097E201979B
:1000D000F1F700C0000008950E9452000C945B00EC
:1000E000FC01808190E0019666E070E00E94E300F0
:1000F000808308951F920F920FB60F9211242F93B1
:100100003F934F935F936F937F938F939F93AF939F
:10011000BF93EF93FF938FE59AEE0197F1F700C03D
:10012000000080910101811102C04A9906C08091AE
:100130000101882361F04A990AC08091010191E090
:1001400089278093010180E091E00E947000E09A8D
:10015000FF91EF91BF91AF919F918F917F916F919F
:100160005F914F913F912F910F900FBE0F901F9075
:100170001895F8948FEF81B984B987B91AB8E89ABD
:10018000E9E6F0E0808181608083789408950E94A0
:10019000B90080910001823069F038F4882369F059
:1001A0008130B9F70E946C00F4CF843049F028F018
:1001B000853079F70E945B00ECCF0E945200E9CFB6
:1001C0000E946400E6CF97FB072E16F4009407D038
:1001D00077FD09D00E94F70007FC05D03EF490950A
:1001E00081959F4F0895709561957F4F0895AA1B43
:1001F000BB1B51E107C0AA1FBB1FA617B70710F012
:10020000A61BB70B881F991F5A95A9F78095909543
:0A021000BC01CD010895F894FFCF62
:00000001FF
