:100000000C943E000C9448000C9448000C9448005A
:100010000C9448000C9448000C9448000C94480040
:100020000C9448000C9448000C9448000C94480030
:100030000C9448000C9448000C9448000C94480020
:100040000C9448000C9448000C9448000C94480010
:100050000C9448000C9448000C9448000C94480000
:100060000C9448000C9448000C9448000C944800F0
:100070000C9448000C9448000C94480011241FBEB6
:10008000CFEFD8E0DEBFCDBF0E9460000C947700B8
:100090000C9400001092C5008FEC8093C40080EC9B
:1000A0008093C00088E18093C10086E08093C20005
:1000B00008958091C00085FFFCCF8091C60008950F
:1000C000CF93DF930E944A008FE097E20197F1F708
:1000D00000C00000C4E6D4E10E945900D150E1F70D
:1000E000C150C9F790E080E0DF91CF910895F89476
:0200F000FFCF40
:00000001FF
